:020000040800F2
:1000000030040020C5000008CD000008CF00000823
:1000100000000000000000000000000000000000E0
:10002000000000000000000000000000D1000008F7
:100030000000000000000000D3000008D500000808
:10004000D700000800000000D7000008D700000813
:10005000D7000008D7000008D7000008D700000824
:1000600000000000D7000008D7000008D7000008F3
:10007000D7000008D7000008D700000800000000E3
:10008000D70000080000000000000000D7000008B2
:1000900000000000D7000008D7000008D7000008C3
:1000A00000000000D700000800000000D700000892
:1000B0000348854600F026F800480047DD060008A2
:1000C000300400200448804704480047FEE7FEE76C
:1000D000FEE7FEE7FEE7FEE715040008B1000008B2
:1000E00003460B439B0703D009E008C9121F08C051
:1000F000042AFAD203E00B780370401C491C521EFC
:10010000F9D27047064C0125064E05E0E36807CC9E
:100110002B430C3C98471034B442F7D3FFF7CCFF85
:10012000CC070008DC07000870B500F023F91F2495
:10013000002824D1B64DE81D00F06EF9284608309D
:1001400000F06AF92E7A681C072100F09FF88642B9
:1001500015D1E87911280CD30124E5020E26002ED2
:100160000CD0E006284300F09FF8A0022D18761E60
:10017000F5E7022803D3800200F096F879242046A0
:1001800000F05CF970BDC04670B500F0F3F80028CF
:1001900027D1164DE81D00F03FF9EE796C1C0621C1
:1001A000204600F073F886421BD111A10D22204693
:1001B000FFF796FF0A24AC7328460F3010A10722E0
:1001C000FFF78EFFAC75284617300FA10622FFF708
:1001D00087FF01241D2C07D0285D00F02FF9641C37
:1001E000F8E71F2000F02AF970BDC046000000208B
:1001F00053544D33324630333046345036000000CD
:100200004B45424920303200312E312E3030000033
:10021000B0B500F0AFF8002810D17D4CE01D00F023
:10022000FBF8E579601C062100F030F8854205D125
:10023000792000F003F900F0D7F9FEE71F2000F065
:10024000FDF8B0BD70B500F095F81F24002818D156
:1002500007266F4D1A2E04D0A81900F0DDF8761C81
:10026000F8E76E7E681C182100F010F8864208D16D
:10027000287AE979090208180935294600F0F4F8C6
:100280007924204600F0DAF870BDC04610B500228F
:1002900013468B4205D204781219D2B25B1C401C63
:1002A000F7E75042C0B210BD10B5044600F030F878
:1002B0000D48026802210A4302604460026840233C
:1002C00013430360021F1368DB07FBD113689B060F
:1002D00001D52023136002688A43026001688022EE
:1002E0000A43026010BDC0461020024000201E4993
:1002F0001E4A632805D80B68934202D0401C091D92
:10030000F7E7632801D80020704701207047C046F6
:1003100005488168C907FCD1C168090603D50349AE
:1003200001600349016070470420024023016745D2
:10033000AB89EFCD00220C480C4992B29300C4580F
:100340008C4206D001256D075C51521C93B293423A
:10035000F3D0016881F3088805490A680323134331
:100360000B6040688047FEE700080008DDCCBBAAB0
:1003700000000140B0B5264CE01C0B4DA847201DE5
:10038000A847601DA847A01DA847E078000621796E
:1003900009040818617909024018A1794018034935
:1003A000401A411E8841B0BD19040008CDAB21435D
:1003B0001CB56C46CD206071AB2020712120E0700F
:1003C0004320A070912060706E202070062120468E
:1003D000FFF75CFFA071224A116801208B0603D54C
:1003E00012890923194200D01CBDEF4B19785C1803
:1003F00062706C46645CD2B2944201D1491C19709F
:10040000C9B20729F0D1792000F018F800201CBDEE
:10041000000000207047000080B5114A11688B066B
:10042000FCD5128902700920014204D01F2000F07F
:1004300005F8002080BD012080BDC04610B50849E8
:100440000A681206FCD5074A146880231C4314600E
:10045000888108684006FCD510689843106010BD7C
:100460001C3801401400004870B50C460546FFF7E3
:100470004FFF1148426801210A4342600022082AC6
:1004800011D05300E65CE3185B781B029B192B80AC
:100490000368DB07FCD103689B0601D520230360BA
:1004A000AD1C521CEBE742688A43426041688022DF
:1004B0000A43426070BDC0460C20024010B5484857
:1004C0000021C160816041600160012293054348C1
:1004D00004689C4304600923DC0661629B06E360B8
:1004E00003239B06A36061600521C90621605104B6
:1004F00002688A43026010BDFF20000263490A6857
:10050000024083320A6000204860704701200002E8
:1005100067490A6882430A606648002101604162B7
:1005200081620149C1627047FFFF00006A480021F3
:100530000160C1600120800366490A6882430A6045
:100540007047C046B0B50120820524490B681343AB
:100550000B600322D343224A14681C4014601468C1
:1005600004431460C44355682540556095681D4098
:100570009560D5681D40D56093692340936142041E
:100580000B6813430B600921C9060B68154A134019
:100590000B6083030C681C430C608024E4434D68AB
:1005A00025404D608D681D438D60C0038D680543F7
:1005B0008D60C8681040C860C8689843C8604869C2
:1005C000204048610520C0040A6802430A601120E7
:1005D00000014A6A02434A62B0BDC046141002409C
:1005E00000140048FF7FFFFF0B48016801220A4307
:1005F000026001688907FCD508480949016009497A
:1006000001600721416064218160C1680029FCD13B
:10061000054901607047C046241002400030004088
:10062000CCCC000055550000AAAA0000B0B5174870
:1006300042680C210A40082A07D1426803239A43E2
:10064000426042681207920FFBD101221306046830
:100650009C430460520604681442FCD10F24A40495
:100660004568A5430524E4042C19446004681C4330
:10067000046003681342FCD04268022313434360C2
:1006800042680A40082AFBD1B0BDC04600100240B3
:1006900001200102064A13680B431360054A5062A9
:1006A000054B9362F531D1621168014311607047C7
:1006B0001C1002400020004080BB0000012080038D
:1006C00004490A6802430A600D204101024AD160D0
:1006D0001060704718100240003801402E48006832
:1006E00000052E49884211D172B6FFF7FFFD04467E
:1006F000FFF79CFFFFF726FF294D002C07D0286845
:10070000012101432960FFF7D9FF0EE0FEE7FFF763
:10071000D5FFFFF7BDFF234CF72040002168814241
:100720002ED8FFF745FE0028F6D1FFF7EFFE286828
:100730000121014329601C4C601CFFF76DFEA01CC9
:10074000FFF76AFEA078FF214140607888420AD115
:1007500002280FD02B280AD03C280ED0432802D1E3
:10076000FFF7E2FCE8E71F20FFF768FEE4E7FFF78A
:1007700069FDE1E7FFF708FDDEE7FFF749FDDBE78D
:10078000FFF7BAFEFFF79AFEFFF7D0FEFFF7BEFEB7
:1007900062B6FFF7CFFDC04600580140000040445C
:1007A00014140048242000400000002002E008C883
:1007B000121F08C1002AFAD170477047002001E0DB
:1007C00001C1121F002AFBD170470000DC0700089E
:0C07D0000000002030040000BC070008FE
:04000005080000B13E
:00000001FF
